{
  "_format": "hh-sol-artifact-1",
  "contractName": "RockPaperScissors",
  "sourceName": "contracts/RockPaperScissors.sol",
  "abi": [
    {
      "inputs": [
        {
          "internalType": "address",
          "name": "_player2",
          "type": "address"
        }
      ],
      "stateMutability": "payable",
      "type": "constructor"
    },
    {
      "inputs": [],
      "name": "claimTimeoutWin",
      "outputs": [],
      "stateMutability": "nonpayable",
      "type": "function"
    },
    {
      "inputs": [],
      "name": "determineWinner",
      "outputs": [],
      "stateMutability": "nonpayable",
      "type": "function"
    },
    {
      "inputs": [],
      "name": "gameActive",
      "outputs": [
        {
          "internalType": "bool",
          "name": "",
          "type": "bool"
        }
      ],
      "stateMutability": "view",
      "type": "function"
    },
    {
      "inputs": [],
      "name": "player1",
      "outputs": [
        {
          "internalType": "address",
          "name": "",
          "type": "address"
        }
      ],
      "stateMutability": "view",
      "type": "function"
    },
    {
      "inputs": [],
      "name": "player2",
      "outputs": [
        {
          "internalType": "address",
          "name": "",
          "type": "address"
        }
      ],
      "stateMutability": "view",
      "type": "function"
    },
    {
      "inputs": [
        {
          "internalType": "address",
          "name": "",
          "type": "address"
        }
      ],
      "name": "players",
      "outputs": [
        {
          "internalType": "bytes32",
          "name": "hashedMove",
          "type": "bytes32"
        },
        {
          "internalType": "enum RockPaperScissors.Move",
          "name": "revealedMove",
          "type": "uint8"
        },
        {
          "internalType": "uint256",
          "name": "lastAction",
          "type": "uint256"
        },
        {
          "internalType": "bool",
          "name": "hasRevealed",
          "type": "bool"
        }
      ],
      "stateMutability": "view",
      "type": "function"
    },
    {
      "inputs": [
        {
          "internalType": "enum RockPaperScissors.Move",
          "name": "_move",
          "type": "uint8"
        },
        {
          "internalType": "string",
          "name": "_secret",
          "type": "string"
        }
      ],
      "name": "revealMove",
      "outputs": [],
      "stateMutability": "nonpayable",
      "type": "function"
    },
    {
      "inputs": [
        {
          "internalType": "bytes32",
          "name": "_hashedMove",
          "type": "bytes32"
        }
      ],
      "name": "submitMove",
      "outputs": [],
      "stateMutability": "nonpayable",
      "type": "function"
    },
    {
      "inputs": [],
      "name": "wager",
      "outputs": [
        {
          "internalType": "uint256",
          "name": "",
          "type": "uint256"
        }
      ],
      "stateMutability": "view",
      "type": "function"
    }
  ],
  "bytecode": "0x608060405260405162001bbb38038062001bbb83398181016040528101906200002991906200013d565b336000806101000a81548173ffffffffffffffffffffffffffffffffffffffff021916908373ffffffffffffffffffffffffffffffffffffffff16021790555080600160006101000a81548173ffffffffffffffffffffffffffffffffffffffff021916908373ffffffffffffffffffffffffffffffffffffffff160217905550346002819055506001600360006101000a81548160ff021916908315150217905550506200016f565b600080fd5b600073ffffffffffffffffffffffffffffffffffffffff82169050919050565b60006200010582620000d8565b9050919050565b6200011781620000f8565b81146200012357600080fd5b50565b60008151905062000137816200010c565b92915050565b600060208284031215620001565762000155620000d3565b5b6000620001668482850162000126565b91505092915050565b611a3c806200017f6000396000f3fe608060405234801561001057600080fd5b50600436106100935760003560e01c80638972fe61116100665780638972fe61146100fa578063a224cb3e14610116578063d30895e414610120578063e2eb41ff1461013e578063f020044f1461017157610093565b80632932a4c81461009857806333b16d93146100b457806359a5f12d146100be578063667d5d22146100dc575b600080fd5b6100b260048036038101906100ad9190611185565b61018f565b005b6100bc6103dc565b005b6100c66109ea565b6040516100d391906111f3565b60405180910390f35b6100e4610a10565b6040516100f19190611227565b60405180910390f35b610114600480360381019061010f91906113ad565b610a16565b005b61011e610d9b565b005b610128611015565b60405161013591906111f3565b60405180910390f35b61015860048036038101906101539190611435565b611039565b6040516101689493929190611503565b60405180910390f35b610179611083565b6040516101869190611548565b60405180910390f35b60008054906101000a900473ffffffffffffffffffffffffffffffffffffffff1673ffffffffffffffffffffffffffffffffffffffff163373ffffffffffffffffffffffffffffffffffffffff1614806102365750600160009054906101000a900473ffffffffffffffffffffffffffffffffffffffff1673ffffffffffffffffffffffffffffffffffffffff163373ffffffffffffffffffffffffffffffffffffffff16145b610275576040517f08c379a000000000000000000000000000000000000000000000000000000000815260040161026c906115c0565b60405180910390fd5b6000801b600460003373ffffffffffffffffffffffffffffffffffffffff1673ffffffffffffffffffffffffffffffffffffffff16815260200190815260200160002060000154146102fc576040517f08c379a00000000000000000000000000000000000000000000000000000000081526004016102f39061162c565b60405180910390fd5b60405180608001604052808281526020016000600381111561032157610320611471565b5b815260200142815260200160001515815250600460003373ffffffffffffffffffffffffffffffffffffffff1673ffffffffffffffffffffffffffffffffffffffff1681526020019081526020016000206000820151816000015560208201518160010160006101000a81548160ff021916908360038111156103a7576103a6611471565b5b02179055506040820151816002015560608201518160030160006101000a81548160ff02191690831515021790555090505050565b60008054906101000a900473ffffffffffffffffffffffffffffffffffffffff1673ffffffffffffffffffffffffffffffffffffffff163373ffffffffffffffffffffffffffffffffffffffff1614806104835750600160009054906101000a900473ffffffffffffffffffffffffffffffffffffffff1673ffffffffffffffffffffffffffffffffffffffff163373ffffffffffffffffffffffffffffffffffffffff16145b6104c2576040517f08c379a00000000000000000000000000000000000000000000000000000000081526004016104b9906115c0565b60405180910390fd5b600460008060009054906101000a900473ffffffffffffffffffffffffffffffffffffffff1673ffffffffffffffffffffffffffffffffffffffff1673ffffffffffffffffffffffffffffffffffffffff16815260200190815260200160002060030160009054906101000a900460ff1680156105ad575060046000600160009054906101000a900473ffffffffffffffffffffffffffffffffffffffff1673ffffffffffffffffffffffffffffffffffffffff1673ffffffffffffffffffffffffffffffffffffffff16815260200190815260200160002060030160009054906101000a900460ff165b6105ec576040517f08c379a00000000000000000000000000000000000000000000000000000000081526004016105e390611698565b60405180910390fd5b6000600460008060009054906101000a900473ffffffffffffffffffffffffffffffffffffffff1673ffffffffffffffffffffffffffffffffffffffff1673ffffffffffffffffffffffffffffffffffffffff16815260200190815260200160002060010160009054906101000a900460ff169050600060046000600160009054906101000a900473ffffffffffffffffffffffffffffffffffffffff1673ffffffffffffffffffffffffffffffffffffffff1673ffffffffffffffffffffffffffffffffffffffff16815260200190815260200160002060010160009054906101000a900460ff1690508060038111156106ea576106e9611471565b5b8260038111156106fd576106fc611471565b5b036107db5760008054906101000a900473ffffffffffffffffffffffffffffffffffffffff1673ffffffffffffffffffffffffffffffffffffffff166108fc6002549081150290604051600060405180830381858888f1935050505015801561076a573d6000803e3d6000fd5b50600160009054906101000a900473ffffffffffffffffffffffffffffffffffffffff1673ffffffffffffffffffffffffffffffffffffffff166108fc6002549081150290604051600060405180830381858888f193505050501580156107d5573d6000803e3d6000fd5b506109cb565b600160038111156107ef576107ee611471565b5b82600381111561080257610801611471565b5b148015610832575060038081111561081d5761081c611471565b5b8160038111156108305761082f611471565b5b145b8061089157506002600381111561084c5761084b611471565b5b82600381111561085f5761085e611471565b5b14801561089057506001600381111561087b5761087a611471565b5b81600381111561088e5761088d611471565b5b145b5b806108ef57506003808111156108aa576108a9611471565b5b8260038111156108bd576108bc611471565b5b1480156108ee5750600260038111156108d9576108d8611471565b5b8160038111156108ec576108eb611471565b5b145b5b156109605760008054906101000a900473ffffffffffffffffffffffffffffffffffffffff1673ffffffffffffffffffffffffffffffffffffffff166108fc479081150290604051600060405180830381858888f1935050505015801561095a573d6000803e3d6000fd5b506109ca565b600160009054906101000a900473ffffffffffffffffffffffffffffffffffffffff1673ffffffffffffffffffffffffffffffffffffffff166108fc479081150290604051600060405180830381858888f193505050501580156109c8573d6000803e3d6000fd5b505b5b6000600360006101000a81548160ff0219169083151502179055505050565b600160009054906101000a900473ffffffffffffffffffffffffffffffffffffffff1681565b60025481565b60008054906101000a900473ffffffffffffffffffffffffffffffffffffffff1673ffffffffffffffffffffffffffffffffffffffff163373ffffffffffffffffffffffffffffffffffffffff161480610abd5750600160009054906101000a900473ffffffffffffffffffffffffffffffffffffffff1673ffffffffffffffffffffffffffffffffffffffff163373ffffffffffffffffffffffffffffffffffffffff16145b610afc576040517f08c379a0000000000000000000000000000000000000000000000000000000008152600401610af3906115c0565b60405180910390fd5b6201518060046000610b0c611096565b73ffffffffffffffffffffffffffffffffffffffff1673ffffffffffffffffffffffffffffffffffffffff16815260200190815260200160002060020154610b5491906116e7565b421115610b96576040517f08c379a0000000000000000000000000000000000000000000000000000000008152600401610b8d90611767565b60405180910390fd5b600460003373ffffffffffffffffffffffffffffffffffffffff1673ffffffffffffffffffffffffffffffffffffffff16815260200190815260200160002060030160009054906101000a900460ff1615610c26576040517f08c379a0000000000000000000000000000000000000000000000000000000008152600401610c1d906117d3565b60405180910390fd5b600460003373ffffffffffffffffffffffffffffffffffffffff1673ffffffffffffffffffffffffffffffffffffffff168152602001908152602001600020600001548282604051602001610c7c92919061189a565b6040516020818303038152906040528051906020012014610cd2576040517f08c379a0000000000000000000000000000000000000000000000000000000008152600401610cc99061190e565b60405180910390fd5b81600460003373ffffffffffffffffffffffffffffffffffffffff1673ffffffffffffffffffffffffffffffffffffffff16815260200190815260200160002060010160006101000a81548160ff02191690836003811115610d3757610d36611471565b5b02179055506001600460003373ffffffffffffffffffffffffffffffffffffffff1673ffffffffffffffffffffffffffffffffffffffff16815260200190815260200160002060030160006101000a81548160ff0219169083151502179055505050565b60008054906101000a900473ffffffffffffffffffffffffffffffffffffffff1673ffffffffffffffffffffffffffffffffffffffff163373ffffffffffffffffffffffffffffffffffffffff161480610e425750600160009054906101000a900473ffffffffffffffffffffffffffffffffffffffff1673ffffffffffffffffffffffffffffffffffffffff163373ffffffffffffffffffffffffffffffffffffffff16145b610e81576040517f08c379a0000000000000000000000000000000000000000000000000000000008152600401610e78906115c0565b60405180910390fd5b60046000610e8d611096565b73ffffffffffffffffffffffffffffffffffffffff1673ffffffffffffffffffffffffffffffffffffffff16815260200190815260200160002060030160009054906101000a900460ff1615610f18576040517f08c379a0000000000000000000000000000000000000000000000000000000008152600401610f0f9061197a565b60405180910390fd5b6201518060046000610f28611096565b73ffffffffffffffffffffffffffffffffffffffff1673ffffffffffffffffffffffffffffffffffffffff16815260200190815260200160002060020154610f7091906116e7565b4211610fb1576040517f08c379a0000000000000000000000000000000000000000000000000000000008152600401610fa8906119e6565b60405180910390fd5b3373ffffffffffffffffffffffffffffffffffffffff166108fc479081150290604051600060405180830381858888f19350505050158015610ff7573d6000803e3d6000fd5b506000600360006101000a81548160ff021916908315150217905550565b60008054906101000a900473ffffffffffffffffffffffffffffffffffffffff1681565b60046020528060005260406000206000915090508060000154908060010160009054906101000a900460ff16908060020154908060030160009054906101000a900460ff16905084565b600360009054906101000a900460ff1681565b60008060009054906101000a900473ffffffffffffffffffffffffffffffffffffffff1673ffffffffffffffffffffffffffffffffffffffff163373ffffffffffffffffffffffffffffffffffffffff16146111125760008054906101000a900473ffffffffffffffffffffffffffffffffffffffff16611136565b600160009054906101000a900473ffffffffffffffffffffffffffffffffffffffff165b905090565b6000604051905090565b600080fd5b600080fd5b6000819050919050565b6111628161114f565b811461116d57600080fd5b50565b60008135905061117f81611159565b92915050565b60006020828403121561119b5761119a611145565b5b60006111a984828501611170565b91505092915050565b600073ffffffffffffffffffffffffffffffffffffffff82169050919050565b60006111dd826111b2565b9050919050565b6111ed816111d2565b82525050565b600060208201905061120860008301846111e4565b92915050565b6000819050919050565b6112218161120e565b82525050565b600060208201905061123c6000830184611218565b92915050565b6004811061124f57600080fd5b50565b60008135905061126181611242565b92915050565b600080fd5b600080fd5b6000601f19601f8301169050919050565b7f4e487b7100000000000000000000000000000000000000000000000000000000600052604160045260246000fd5b6112ba82611271565b810181811067ffffffffffffffff821117156112d9576112d8611282565b5b80604052505050565b60006112ec61113b565b90506112f882826112b1565b919050565b600067ffffffffffffffff82111561131857611317611282565b5b61132182611271565b9050602081019050919050565b82818337600083830152505050565b600061135061134b846112fd565b6112e2565b90508281526020810184848401111561136c5761136b61126c565b5b61137784828561132e565b509392505050565b600082601f83011261139457611393611267565b5b81356113a484826020860161133d565b91505092915050565b600080604083850312156113c4576113c3611145565b5b60006113d285828601611252565b925050602083013567ffffffffffffffff8111156113f3576113f261114a565b5b6113ff8582860161137f565b9150509250929050565b611412816111d2565b811461141d57600080fd5b50565b60008135905061142f81611409565b92915050565b60006020828403121561144b5761144a611145565b5b600061145984828501611420565b91505092915050565b61146b8161114f565b82525050565b7f4e487b7100000000000000000000000000000000000000000000000000000000600052602160045260246000fd5b600481106114b1576114b0611471565b5b50565b60008190506114c2826114a0565b919050565b60006114d2826114b4565b9050919050565b6114e2816114c7565b82525050565b60008115159050919050565b6114fd816114e8565b82525050565b60006080820190506115186000830187611462565b61152560208301866114d9565b6115326040830185611218565b61153f60608301846114f4565b95945050505050565b600060208201905061155d60008301846114f4565b92915050565b600082825260208201905092915050565b7f4e6f74206120706c617965720000000000000000000000000000000000000000600082015250565b60006115aa600c83611563565b91506115b582611574565b602082019050919050565b600060208201905081810360008301526115d98161159d565b9050919050565b7f4d6f766520616c7265616479207375626d697474656400000000000000000000600082015250565b6000611616601683611563565b9150611621826115e0565b602082019050919050565b6000602082019050818103600083015261164581611609565b9050919050565b7f426f746820706c6179657273206d7573742072657665616c0000000000000000600082015250565b6000611682601883611563565b915061168d8261164c565b602082019050919050565b600060208201905081810360008301526116b181611675565b9050919050565b7f4e487b7100000000000000000000000000000000000000000000000000000000600052601160045260246000fd5b60006116f28261120e565b91506116fd8361120e565b9250828201905080821115611715576117146116b8565b5b92915050565b7f52657665616c20706572696f6420657870697265640000000000000000000000600082015250565b6000611751601583611563565b915061175c8261171b565b602082019050919050565b6000602082019050818103600083015261178081611744565b9050919050565b7f416c72656164792072657665616c656400000000000000000000000000000000600082015250565b60006117bd601083611563565b91506117c882611787565b602082019050919050565b600060208201905081810360008301526117ec816117b0565b9050919050565b60008160f81b9050919050565b600061180b826117f3565b9050919050565b61182361181e826114c7565b611800565b82525050565b600081519050919050565b600081905092915050565b60005b8381101561185d578082015181840152602081019050611842565b60008484015250505050565b600061187482611829565b61187e8185611834565b935061188e81856020860161183f565b80840191505092915050565b60006118a68285611812565b6001820191506118b68284611869565b91508190509392505050565b7f496e76616c69642072657665616c000000000000000000000000000000000000600082015250565b60006118f8600e83611563565b9150611903826118c2565b602082019050919050565b60006020820190508181036000830152611927816118eb565b9050919050565b7f4f70706f6e656e74206861732072657665616c65640000000000000000000000600082015250565b6000611964601583611563565b915061196f8261192e565b602082019050919050565b6000602082019050818103600083015261199381611957565b9050919050565b7f54696d65206c696d6974206e6f74207265616368656400000000000000000000600082015250565b60006119d0601683611563565b91506119db8261199a565b602082019050919050565b600060208201905081810360008301526119ff816119c3565b905091905056fea2646970667358221220faf42e8c426cbd6f956284da0b63c2d9eebcec69ae8212ee793c16a5cbdabfaf64736f6c63430008140033",
  "linkReferences": {},
  "deployedLinkReferences": {}
}